S01B000054696D657273416E64496E74657272757074732E7372656342
S11300000C942A000C944D010C9474010C949B01E3
S11300100C94C2010C94E9010C9410020C94370264
S11300200C945E020C9485020C94AC020C94D302E2
S11300300C94FA020C9421030C9448030C946F035F
S11300400C9496030C94BD030C94E4030C940B04DD
S11300500C94320411241FBECFE5D8E0DEBFCDBF1F
S113006010E0A0E6B0E0ECEAFCE002C005900D92DE
S1130070A236B107D9F710E0A2E6B0E001C01D92A4
S1130080AE38B107E1F70E941D060C9454060C9497
S11300900000813049F0813028F0823039F083301B
S11300A041F406C06ABB089567BB089564BB089514
S11300B061BB0895813049F0813028F0823039F0F5
S11300C0833041F406C06BBB089568BB089565BBDB
S11300D0089562BB0895813059F0813028F0823050
S11300E059F0833081F40CC08BB380958BBB089599
S11300F088B3809588BB089585B3809585BB0895A2
S113010082B3809582BB0895813049F0813028F014
S1130110823039F0833049F406C08BB3089588B334
S1130120089585B3089582B3089580E00895442323
S113013019F04F3FD1F521C0813069F0813028F0AA
S1130140823079F08330C9F412C08AB3962F909527
S113015089238ABB1BC087B3962F9095892387BBBD
S113016019C084B3962F9095892384BB17C081B39B
S1130170962F9095892381BB15C0813059F0813029
S113018028F0823059F0833081F40CC08AB3682B94
S11301906ABB089587B3682B67BB089584B3682B43
S11301A064BB089581B3682B61BB0895442319F09F
S11301B04F3FB1F51DC0813061F0813028F08230AD
S11301C069F0833069F50FC08BB3609568236BBB0E
S11301D0089588B36095682368BB089585B36095D6
S11301E0682365BB089582B36095682362BB089554
S11301F0813059F0813028F0823059F0833081F415
S11302000CC08BB3682B6BBB089588B3682B68BB99
S1130210089585B3682B65BB089582B3682B62BBD0
S11302200895813059F0813028F0823059F08330BC
S113023081F40CC08BB368276BBB089588B368271F
S113024068BB089585B3682765BB089582B36827A2
S113025062BB0895813051F0813028F0823049F03A
S1130260833069F409C089B368230AC086B368235C
S113027007C083B3682304C080B3682301C060E06F
S113028081E0662309F480E008958FB780688FBF0A
S113029008958FB78F778FBF08951F920F920FB66F
S11302A00F9211242F933F934F935F936F937F93F8
S11302B08F939F93AF93BF93EF93FF93E0917E004F
S11302C0F0917F000995FF91EF91BF91AF919F91BC
S11302D08F917F916F915F914F913F912F910F90EB
S11302E00FBE0F901F9018951F920F920FB60F928A
S11302F011242F933F934F935F936F937F938F9327
S11303009F93AF93BF93EF93FF93E0918600F09197
S113031087000995FF91EF91BF91AF919F918F91C4
S11303207F916F915F914F913F912F910F900FBEED
S11303300F901F9018951F920F920FB60F921124D1
S11303402F933F934F935F936F937F938F939F93D9
S1130350AF93BF93EF93FF93E0917600F091770012
S11303600995FF91EF91BF91AF919F918F917F91EB
S11303706F915F914F913F912F910F900FBE0F900E
S11303801F9018951F920F920FB60F9211242F935E
S11303903F934F935F936F937F938F939F93AF9309
S11303A0BF93EF93FF93E0918C00F0918D0009953A
S11303B0FF91EF91BF91AF919F918F917F916F9139
S11303C05F914F913F912F910F900FBE0F901F900F
S11303D018951F920F920FB60F9211242F933F93EB
S11303E04F935F936F937F938F939F93AF93BF9339
S11303F0EF93FF93E0916C00F0916D000995FF91EC
S1130400EF91BF91AF919F918F917F916F915F9188
S11304104F913F912F910F900FBE0F901F90189501
S11304201F920F920FB60F9211242F933F934F9365
S11304305F936F937F938F939F93AF93BF93EF9348
S1130440FF93E0918800F09189000995FF91EF9165
S1130450BF91AF919F918F917F916F915F914F91D8
S11304603F912F910F900FBE0F901F9018951F92E0
S11304700F920FB60F9211242F933F934F935F93D4
S11304806F937F938F939F93AF93BF93EF93FF9358
S1130490E0917200F09173000995FF91EF91BF9183
S11304A0AF919F918F917F916F915F914F913F9108
S11304B02F910F900FBE0F901F9018951F920F92BF
S11304C00FB60F9211242F933F934F935F936F9323
S11304D07F938F939F93AF93BF93EF93FF93E09199
S11304E07000F09171000995FF91EF91BF91AF9168
S11304F09F918F917F916F915F914F913F912F9138
S11305000F900FBE0F901F9018951F920F920FB669
S11305100F9211242F933F934F935F936F937F9385
S11305208F939F93AF93BF93EF93FF93E0918A00D0
S1130530F0918B000995FF91EF91BF91AF919F913D
S11305408F917F916F915F914F913F912F910F9078
S11305500FBE0F901F9018951F920F920FB60F9217
S113056011242F933F934F935F936F937F938F93B4
S11305709F93AF93BF93EF93FF93E0918200F09129
S113058083000995FF91EF91BF91AF919F918F9156
S11305907F916F915F914F913F912F910F900FBE7B
S11305A00F901F9018951F920F920FB60F9211245F
S11305B02F933F934F935F936F937F938F939F9367
S11305C0AF93BF93EF93FF93E0916000F0916100CC
S11305D00995FF91EF91BF91AF919F918F917F9179
S11305E06F915F914F913F912F910F900FBE0F909C
S11305F01F9018951F920F920FB60F9211242F93EC
S11306003F934F935F936F937F938F939F93AF9396
S1130610BF93EF93FF93E0917400F09175000995F7
S1130620FF91EF91BF91AF919F918F917F916F91C6
S11306305F914F913F912F910F900FBE0F901F909C
S113064018951F920F920FB60F9211242F933F9378
S11306504F935F936F937F938F939F93AF93BF93C6
S1130660EF93FF93E0916A00F0916B000995FF917D
S1130670EF91BF91AF919F918F917F916F915F9116
S11306804F913F912F910F900FBE0F901F9018958F
S11306901F920F920FB60F9211242F933F934F93F3
S11306A05F936F937F938F939F93AF93BF93EF93D6
S11306B0FF93E0918400F09185000995FF91EF91FB
S11306C0BF91AF919F918F917F916F915F914F9166
S11306D03F912F910F900FBE0F901F9018951F926E
S11306E00F920FB60F9211242F933F934F935F9362
S11306F06F937F938F939F93AF93BF93EF93FF93E6
S1130700E0918000F09181000995FF91EF91BF91F4
S1130710AF919F918F917F916F915F914F913F9195
S11307202F910F900FBE0F901F9018951F920F924C
S11307300FB60F9211242F933F934F935F936F93B0
S11307407F938F939F93AF93BF93EF93FF93E09126
S11307507A00F0917B000995FF91EF91BF91AF91E1
S11307609F918F917F916F915F914F913F912F91C5
S11307700F900FBE0F901F9018951F920F920FB6F7
S11307800F9211242F933F934F935F936F937F9313
S11307908F939F93AF93BF93EF93FF93E0917C006C
S11307A0F0917D000995FF91EF91BF91AF919F91D9
S11307B08F917F916F915F914F913F912F910F9006
S11307C00FBE0F901F9018951F920F920FB60F92A5
S11307D011242F933F934F935F936F937F938F9342
S11307E09F93AF93BF93EF93FF93E0917800F091C1
S11307F079000995FF91EF91BF91AF919F918F91EE
S11308007F916F915F914F913F912F910F900FBE08
S11308100F901F9018951F920F920FB60F921124EC
S11308202F933F934F935F936F937F938F939F93F4
S1130830AF93BF93EF93FF93E0916800F091690049
S11308400995FF91EF91BF91AF919F918F917F9106
S11308506F915F914F913F912F910F900FBE0F9029
S11308601F9018951F920F920FB60F9211242F9379
S11308703F934F935F936F937F938F939F93AF9324
S1130880BF93EF93FF93E0916E00F0916F00099591
S1130890FF91EF91BF91AF919F918F917F916F9154
S11308A05F914F913F912F910F900FBE0F901F902A
S11308B01895813069F0813028F0823079F08330E6
S11308C0C1F412C081E060E14FEF0E9497000895E7
S11308D081E060E24FEF0E949700089581E060E4B8
S11308E04FEF0E949700089581E060E84FEF0E9467
S11308F097000895813069F0813028F0823079F0D2
S11309008330C1F412C081E060E14FEF0E94D60051
S1130910089581E060E24FEF0E94D600089581E0DF
S113092060E44FEF0E94D600089581E060E84FEF45
S11309300E94D6000895813069F0813028F0823019
S113094079F08330C1F412C081E060E140E00E949C
S1130950D600089581E060E240E00E94D600089548
S113096081E060E440E00E94D600089581E060E800
S113097040E00E94D6000895813061F0813028F073
S1130980823069F08330A1F40FC081E060E10E94FD
S11309901101089581E060E20E941101089581E04F
S11309A060E40E941101089581E060E80E94110151
S11309B0089582BF089582B7089583B7887F83BF5F
S11309C093B780916600892B83BF089583B7887F8E
S11309D083BF0895EF920F93442319F40E94E60411
S11309E031C093B7892B842B83BF40936600662361
S11309F021F483B78F7C83BF03C083B7682B63BFA5
S1130A0022BF0CBF81E0E81671F0E81620F082E006
S1130A10E816C1F410C089B719BE0E94490181E0EB
S1130A20809367000FC0109267000E94450189B748
S1130A30816089BF07C0109267000E94450189B791
S1130A40826089BF0F91EF9008958F929F92AF9229
S1130A50BF92CF92DF92EF92FF920F931F93CF93A7
S1130A60DF93EC0180916700882359F1813009F00C
S1130A7049C04E01AA24BB2481149104A104B104E9
S1130A80C9F440C080EF0E94D90408B600FEFDCF2F
S1130A9088B7816088BF2196C730D10599F708943B
S1130AA0C11CD11CE11CF11CC814D904EA04FB04C8
S1130AB030F028C0CC24DD24760100E010E0E80109
S1130AC0E1CF1092620010926300109264001092C1
S1130AD0650080E30E94D904AE01440F551F440F02
S1130AE0551F440F551F60E070E0809162009091A3
S1130AF06300A0916400B0916500481759076A0724
S1130B007B0798F7DF91CF911F910F91FF90EF90A2
S1130B10DF90CF90BF90AF909F908F900895809179
S1130B20620090916300A0916400B0916500019609
S1130B30A11DB11D8093620090936300A093640093
S1130B40B093650008958F929F92AF92BF92CF9217
S1130B50DF92EF92FF924B015C0180916700882342
S1130B60C1F0813009F03FC081149104A104B104A3
S1130B70D1F180E090E0DC0128B728B7216028BFDC
S1130B800196A11DB11D88159905AA05BB05A1F7FC
S1130B902AC01092620010926300109264001092B6
S1130BA0650081149104A104B104E9F0CC24DD248E
S1130BB076018EEF0E94D9048091620090916300C7
S1130BC0A0916400B091650082309105A105B10542
S1130BD098F30894C11CD11CE11CF11CC814D9045D
S1130BE0EA04FB0431F7FF90EF90DF90CF90BF90C1
S1130BF0AF909F908F9008951092620010926300BE
S1130C0010926400109265008BE90E94D9048091CF
S1130C10620090916300A0916400B09165008230FD
S1130C209105A105B10598F30895089508950895CF
S1130C300895089508950895089580E060E042E0DD
S1130C4020E000E0EE24E3940E94EA0481E00E94A4
S1130C50590482E00E94590483E00E94590481E00F
S1130C600E947A040E94DD0488EE93E00E94250528
S1130C7081E00E949B0483E00E947A040E94DD04C8
S1130C8088EE93E00E94250583E00E949B0482E0A5
S1130C900E947A040E94DD0488EE93E00E942505F8
S10F0CA082E00E949B04DBCFF894FFCF9D
S1050CAC8F05AE
S9030000FC
